:020000040800F2
:100000000008002029020008111A000875160008CF
:100010000D1A000821040008491F00080000000014
:10002000000000000000000000000000451A000869
:100030002504000800000000411A00089D1A00086D
:10004000430200084302000843020008430200087C
:10005000430200084302000843020008430200086C
:10006000430200084302000843020008430200085C
:10007000430200084302000843020008430200084C
:10008000430200084302000843020008430200083C
:10009000430200084302000843020008430200082C
:1000A000430200084302000843020008430200081C
:1000B000430200084302000843020008430200080C
:1000C00043020008430200084302000843020008FC
:1000D00043020008430200084302000843020008EC
:1000E00043020008430200084302000843020008DC
:1000F00043020008430200084302000843020008CC
:1001000043020008430200084302000843020008BB
:1001100043020008430200084302000843020008AB
:10012000430200084302000843020008430200089B
:10013000430200084302000843020008430200088B
:10014000430200084302000843020008430200087B
:10015000430200084302000843020008430200086B
:10016000430200084302000843020008430200085B
:100170004302000843020008430200080000000098
:10018000430200084302000800F002F800F03CF8C7
:100190000AA090E8000C82448344AAF10107DA45E2
:1001A00001D100F031F8AFF2090EBAE80F0013F0F8
:1001B000010F18BFFB1A43F001031847D41E0000BB
:1001C000F41E0000103A24BF78C878C1FAD852074C
:1001D00024BF30C830C144BF04680C6070470000C1
:1001E0000023002400250026103A28BF78C1FBD840
:1001F000520728BF30C148BF0B6070471FB501F0E0
:100200002EFF1FBD10B510BD00F0D0F81146FFF74E
:10021000F5FF01F0E5FE00F0EEF803B4FFF7F2FFA2
:1002200003BC00F0F7F80000094880470948004780
:10023000FEE7FEE7FEE7FEE7FEE7FEE7FEE7FEE796
:10024000FEE7FEE704480549054A064B70470000F3
:10025000451B00088901000800020020000800205A
:10026000000400200004002053EA020C00F0698022
:100270002DE9F04B4FF00006002B1FBFB3FA83F5BA
:1002800003FA05F424FA05F65E4012BF1643B2FAEB
:1002900082F502FA05F4C5F120051EBF22FA05FC1D
:1002A00044EA0C04203556EA044C4FEA144418BFC3
:1002B000641C4FF000084FF00009904271EB030CF2
:1002C00039D3002919BFB1FA81F701FA07F6B0FA5C
:1002D00080F700FA07F6C7F120071EBF20FA07FCD7
:1002E00046EA0C062037B6FBF4FCA7EB0507103FE7
:1002F00007F01F0BCBF120062CFA06F60CFA0BFBCD
:1003000044BFB3460026202FA4BF5E464FF0000B2B
:100310005BEA060C08BF4FF0010B19EB0B0948EB29
:100320000608ABFB027C06FB02CC0BFB03CCC01B1C
:1003300071EB0C01C1E70B46024641464846BDE859
:10034000F08B13B5084318BF4FF0FF300146AFF3F1
:100350000080BDE81C4070474FF0000200B5134616
:1003600094469646203922BFA0E80C50A0E80C50D5
:10037000B1F12001BFF4F7AF090728BFA0E80C5086
:1003800048BF0CC05DF804EB890028BF40F8042B7F
:1003900008BF704748BF20F8022B11F0804F18BFEC
:1003A00000F8012B7047704770477047754600F0A2
:1003B0002BF8AE4605006946534620F007008546F7
:1003C00018B020B5FFF73EFFBDE820404FF0000613
:1003D0004FF000074FF000084FF0000BAC46ACE8C0
:1003E000C009ACE8C009ACE8C009ACE8C00921F01C
:1003F00007018D46704710B50446AFF300802046D4
:10040000BDE81040FFF709BF00487047100000200A
:100410007047000001491820ABBEFEE7260002002D
:10042000FEE700007047000072B600BFFEE7000064
:1004300080B50020C4F20200022100F0E3F880BD84
:10044000B0B5044600F0EAF8054640F20400C2F2F6
:1004500000000078611C18BF044400BF00F0DEF803
:10046000401BA042FAD3B0BD2DE9F04F83B000F19C
:100470003E4202F1FF724FEAB22241F6004701927A
:10048000C4F2020708224FF0010E00254FF0000AC7
:100490004FF00008B84208BF072200920AE000BFF0
:1004A00008F101080AF1040AB8F1100F05F102057C
:1004B00000F0A4800C680EFA08FB14EA0B09EFD0D8
:1004C0004C6804F0030CACF1010EBEF1010F11D821
:1004D0000322876802FA05F6CA68B743AA403A437E
:1004E00082604268C4F3001722EA0B0207FA08F799
:1004F0003A434260BCF1030F1CD0C26803238E68EC
:1005000003FA05F7BA4306FA05F73A43BCF1020FBE
:10051000C2600FD16FF0030202EA580202440AF0EF
:100520001C060F23176A03FA06F40B69A743B340AE
:100530003B431362026803234F68AB409A4307F0C2
:100540000303AB401A4317F4403F4FF0010E026023
:10055000A6D0002243F644030292C4F202031A68B2
:1005600043F6004442F480421A601A68C4F201045F
:1005700002F480420292029A28F003024FF6084BDE
:100580002244CFF6FF7B52F80B300AF00C070F26FF
:10059000BE4023EA060C019B009E072B38BF1E4677
:1005A00006FA07F747EA0C0342F80B30A2684B68DB
:1005B00042EA090743F60C4CDE0258BF22EA09075B
:1005C000A760C4F2010CDCF800209E0242EA090791
:1005D00058BF22EA0907CCF8007062689E0342EA1D
:1005E000090758BF22EA090767602268DB0342EA6D
:1005F000090358BF22EA0903236051E703B0BDE8AD
:10060000F08F00000069084018BF0120704700000B
:10061000002A08BF090481617047000040F2F81009
:10062000C2F2000000687047F0B581B0B0B3044674
:1006300090F83D0028B9002084F83C00204600F0E6
:10064000BFF8242084F83D002068016821F00101F2
:100650000160016841F400410160016821F400413A
:10066000016000F01FFA48F28041C0F21E0140F61E
:100670000012656888424FF00001C0F23D0248F266
:10068000A16C4FF0000338BF01219042C0F2010C71
:1006900038BF0123654538BF0B4613B1012001B0B7
:1006A000F0BD4DF68361C4F21B31A0FB011221683D
:1006B0004FEA924E4B684FF4967623F03F0343EA9D
:1006C00092434B6044F6D3530F6A0EFB06F6C1F219
:1006D0006203A6FB033627F03F03B709654538BF21
:1006E000970C7A1C1A430A62CA6948F2A0674CF652
:1006F000FF73C0F20107BD4222EA030C0AD8013899
:100700006A00B0FBF2F001306FF31F30042898BF8D
:1007100004202BE0A368A0F1010E9BB119206843CF
:10072000BEFBF0F00422013062F31F30000512D04E
:100730009BB119206843BEFBF0F00422013062F344
:100740001F3011E005EB4500BEFBF0F001306FF308
:100750001F300005ECD1012008E005EB4500BEFB91
:10076000F0F001306FF31F3040F4004040EA0C001D
:10077000C8610868D4E9072320F0C000104318437B
:100780000860886848F2FF3204F10C0790438CCF70
:1007900018431043A6698860C86820F0FF003843FA
:1007A0003043C860086840F0010008600020202144
:1007B000206484F83D10206384F83E0001B0F0BD51
:1007C000B0B586B045F200410068C4F200010024D3
:1007D00088420594CDE903440294019401D006B007
:1007E000B0BD43F630050094C4F20205286840F01D
:1007F00002002860286800F00200009000984FF482
:10080000407001901220CDE90204032004900420DE
:10081000059001F5D83001A9FFF726FE009428695C
:1008200040F400102861286900F40010009000983E
:1008300006B0B0BD40F2040040F2F811C2F2000070
:10084000C2F2000100780A68104408607047000096
:1008500080B543F60040C4F20200016841F4007123
:100860000160016841F480610160016841F48071B8
:100870000160032000F05CF80F2000F005F800F0A4
:100880002BF8002080BD0000B0B540F20402C2F297
:10089000000240F200011278C2F200014FF47A73B4
:1008A0000968B3FBF2F20446B1FBF2F1084600F02E
:1008B000A7FB0F2C4FF001050CD858B94FF0FF30B3
:1008C00021460022002500F023F840F20800C2F281
:1008D000000004602846B0BD82B0002043F640010D
:1008E0000190C4F202014A6842F480424A604A68B8
:1008F00002F480420192019A0090086840F0805012
:100900000860086800F080500090009802B07047BE
:1009100070B514460D46064601F018FB29462246DE
:1009200001F078F80146304601F018FB70BD000078
:1009300080B501F025FB80BD2DE9F041002800F0D5
:100940008B8043F60808C4F202080446D8F8F8037E
:100950000D4600F00700884207D288F8F853D8F80F
:10096000F80300F00700A84276D12068810717D568
:10097000410705D5D8F8001041F4E051C8F800103F
:10098000010705D5D8F8001041F46041C8F80010FF
:10099000D8F80010A26821F0F0011143C8F8001047
:1009A000C0073FD1D8F8F80300F00700A84207D9E4
:1009B00088F8F853D8F8F80300F00700A8424BD1A4
:1009C0002068410707D5D8F80010E26821F4E0510B
:1009D0001143C8F80010000708D5D8F800002169B5
:1009E00020F4604040EAC100C8F8000000F07EF842
:1009F000D8F8001042F27802C1F30311C0F60002E9
:100A0000515C40F2000220FA01F140F20800C2F20B
:100A100000000068C2F200021160FFF735FF0020FD
:100A2000BDE8F0816068811E022907D258F8081CD1
:100A300089015CBF0120BDE8F08110E0012807D1E9
:100A400058F8081C89035CBF0120BDE8F08106E06E
:100A500058F8081C890702D40120BDE8F081D8F8B5
:100A6000001021F003010843C8F80000FFF7D6FD8D
:100A7000064641F2883700BFD8F80000616800F0F0
:100A80000C00B0EB810F8DD0FFF7C8FD801BB84282
:100A9000F2D90320BDE8F08140F20000C2F200006C
:100AA0000068704780B5FFF7F7FF43F60801C4F20E
:100AB0000201096842F28802C1F38221C0F60002F5
:100AC000515CC84080BD000080B5FFF7E5FF43F6EC
:100AD0000801C4F20201096842F28802C1F34231FE
:100AE000C0F60002515CC84080BD000010B543F65E
:100AF0000404C4F20204606800F00C0142F20040F9
:100B00000829C0F2F40007D0042918BF10BD41F233
:100B10000020C0F27A0010BD216801F03F02216878
:100B200023684902C3F3881105D4A1FB0001002307
:100B3000FFF79AFB06E041F20020C0F27A0048433A
:100B4000B0FBF2F021680222C1F3014102EB410146
:100B5000B0FBF1F010BD00002DE9F04182B000289B
:100B600000F0A2800446007843F60006C007C4F2F5
:100B7000020643D0B06800F00C00042805D13068AC
:100B800080033BD56068C8BB8EE0B06800F00C0005
:100B9000082802D170684002F1D46568B5F5A02F2D
:100BA0000AD0B5F5803F0BD0306820F4803030603B
:100BB000306820F4802006E0306840F48020306007
:100BC000306840F480303060FFF728FD002D054686
:100BD00011D000BF3068800310D4FFF71FFD401B09
:100BE0006428F7D922E100BFFFF718FD401B6428F5
:100BF0004FF0030055D830688003F5D42078800783
:100C00001AD5B06810F00C0F09D0B06800F00C00D5
:100C1000082840F08A807068400200F186803068C1
:100C2000800702D5E06801283ED13068216920F0B4
:100C3000F80040EAC10030602078000738D42078FE
:100C400040074CD4A5695DB3B06800F00C000828DB
:100C500040F09E80012D27D07068E16900F4800289
:100C60008A4221D1216A00F03F028A421CD147F614
:100C7000C071626A0140B1EB821F15D1A26A0023E4
:100C8000CFF6FF7303EBC23200F440316FF30F0273
:100C9000914209D1E16A00F07060B0EB016F03D1BD
:100CA000002002B0BDE8F081012002B0BDE8F08173
:100CB0006069002840F20000C4F2472057D00121AB
:100CC000C0F8801EFFF7AAFC054600BF706F8007C2
:100CD000B5D4FFF7A3FC401B0228F7D9A6E0306C7F
:100CE00010F080580AD100200190306C40F0805004
:100CF0003064306C00F080500190019847F200079A
:100D0000C4F200073868C00524D4386840F4807005
:100D10003860FFF783FC05463868C0051AD4FFF732
:100D20007DFC401B0228F7D980E0E068002851D004
:100D30000020C4F2472001210160FFF76FFC054647
:100D4000306880073FF571AFFFF768FC401B022851
:100D5000F6D96BE0A568052D50D0012D52D0306F2B
:100D600020F001003067306F20F004004DE00021DA
:100D7000C0F8801EFFF752FC054600BF706F800769
:100D80007FF55DAFFFF74AFC401B0228F6D94DE026
:100D90000027C4F2472700203866FFF73FFC022DEA
:100DA00005460BD13068800158D5FFF737FC401B52
:100DB00002284FF00300F5D973E700BF30688001C7
:100DC0007FF56EAFFFF72AFC401B02284FF00300AF
:100DD000F4D966E70020C4F2472000210160FFF744
:100DE0001DFC0546306880077FF526AFFFF716FC2F
:100DF000401B02284FF00300F4D952E7306F40F057
:100E000004003067306F40F001003067FFF706FCE8
:100E1000002D054641F2883714D000BF306F80079F
:100E200013D4FFF7FBFB401BB842F7D9032002B0F5
:100E3000BDE8F081FFF7F2FB401BB8424FF0030022
:100E40003FF62FAF306F8007F4D4B8F1000F7FF476
:100E5000F9AE306C20F080503064F3E604F11C05EC
:100E60002FCD08430021CFF6FF7140EA821001EB3D
:100E7000C3316FF30F0140EA056008437060012041
:100E80003866FFF7CBFB0446306880013FF508AFBA
:100E9000FFF7C4FB001B02284FF00300F4D900E762
:100EA00070B538B10446406A30B10020206104F1C9
:100EB000140007E0012070BD6068B0F5827F03D0A8
:100EC00004F11C00002101600026A66294F8510084
:100ED00020B9204684F8506000F03CF8022084F8E5
:100EE000510094E80F0001F48271056802F4044295
:100EF00025F040050560114403F4006223691144A4
:100F000003F002026369114403F00102A369E56979
:100F1000114403F40072114405F03802256A1144AB
:100F200005F08002A56A114305F4005211430160E7
:100F3000626A042101EA134102F010021144416087
:100F4000C16921F40061C1610120666584F8510026
:100F5000304670BD2DE9F04387B043F600050068C8
:100F6000C4F200050026A8420696CDE90466039661
:100F7000029602D007B0BDE8F08343F63000019638
:100F8000C4F20200016902AC41F4804101610169CF
:100F90004FF0020801F48041019101990196016826
:100FA0004FF0030941F0040101600168052701F0D9
:100FB0000401019101990196016841F0020101606B
:100FC0000068214600F00200019001980C20029078
:100FD00005F5E830CDE90386CDF814900697FFF7C4
:100FE00043FA4FF48060CDE9020805F5E63021466A
:100FF000CDE904690697FFF737FA07B0BDE8F0833B
:1010000080B500F033FD80BDB0B590F83C20012ADA
:1010100004BF0220B0BD01F108053CCDD1E900CEEE
:1010200023F47C5322F470521A432EF4F0431A43F3
:101030002CF4E0431A4324F4C0431A432A43C969F9
:1010400022F48042036811435964002180F83C1067
:101050000846B0BD10B590F83C20012A4FF00202BE
:1010600052D0012380F83C3080F83D200268D2F84D
:1010700004E0D2F808C00C682EF07003234341F25C
:10108000FF74C4F20004A24253600DDC40F2FF730F
:10109000C4F200039A4215DCB2F1804F29D040F22D
:1010A0000043C4F2000322E040F2FF33C4F2010324
:1010B0009A4212DC41F60003C4F200039A4218D0AF
:1010C000002312E040F60003C4F200039A4210D05D
:1010D00040F60043C4F2000309E044F20003C4F206
:1010E00001039A4205D040F20043C4F201039A4240
:1010F00004D149682CF0800319439160012100223A
:1011000080F83D1080F83C20104610BD002804BF38
:101110000120704710B5044690F83D0028B9002022
:1011200084F83C00204600F01FF8022084F83D00BF
:101130002068211D00F010FD012084F8460084F88D
:101140003E0084F83F0084F8400084F8410084F8B1
:10115000420084F8430084F8440084F8450084F891
:101160003D00002010BD000081B0006841F2000188
:10117000C4F20001884201D001B070470020009005
:1011800043F64000C4F20200016841F01001016022
:10119000006800F010000090009801B07047000057
:1011A00090F83D1001291CBF01207047022180F8F2
:1011B0003D10006841F2FF72C168C4F20002904223
:1011C00041F00101C1600DDC40F2FF71C4F2000189
:1011D000884215DCB0F1804F29D040F20041C4F2C2
:1011E000000122E040F2FF31C4F20101884212DC2A
:1011F00041F60001C4F20001884218D0002112E03B
:1012000040F60001C4F20001884210D040F60041CF
:10121000C4F2000109E044F20001C4F20101884275
:1012200005D040F20041C4F20101884206D1816834
:1012300001F00701062904BF00207047016841F052
:1012400001010160002070470146006841F211135E
:10125000C26822F00102C260026A1A4208D1026A20
:1012600040F244431A4203D1026822F001020260B4
:101270000122002081F83D207047000080B586B033
:1012800000210068C4F20101002288420592CDE9E4
:1012900003220292019201D006B080BD43F63000D5
:1012A0000092C4F20200036843F010030360006878
:1012B00000F01000009000984FF4D44001900220FC
:1012C000CDE902020120059001F5883001A90492C0
:1012D000FFF7CAF806B080BDB0B5044690F83C00F0
:1012E000012804BF0220B0BD0D464FEAB201012023
:1012F000032984F83C0037D8DFE801F0020A122203
:101300002068294600F0D4FC206850F8181F0EE031
:101310002068294600F0FEFC206850F8181F16E0EF
:101320002068294600F02CFD206850F81C1F41F071
:1013300008010160016821F00401016029690FE0E2
:101340002068294600F050FD206850F81C1F41F429
:1013500000610160016821F480610160296909026E
:101360000268114301600020002184F83C10B0BDE8
:10137000002804BF0120704710B5044690F83D00D6
:1013800028B9002084F83C00204600F01FF8022015
:1013900084F83D002068211D00F0DEFB012084F868
:1013A000460084F83E0084F83F0084F8400084F84A
:1013B000410084F8420084F8430084F8440084F833
:1013C000450084F83D00002010BD000081B0006899
:1013D0000021C4F20101884201D001B07047002011
:1013E000009043F64400C4F20200016841F001019C
:1013F0000160006800F001000090009801B07047A3
:1014000010B5044641B1082909D0042914BF04F1DC
:10141000410004F13F0004E004F13E0001E004F16A
:101420004000007801281CBF012010BD022041B1FE
:10143000082909D0042914BF84F8410084F83F002A
:1014400004E084F83E0001E084F8400020680122B6
:1014500000F01CFC206841F2FF71C4F200018842D8
:101460000FDC40F2FF71C4F20001884217DCB0F1DA
:10147000804F49D040F20041C4F20001884243D07D
:1014800049E040F2FF32C4F20102904214DC41F61E
:101490000003C4F20003984236D0002314E040F663
:1014A0000001C4F2000188422ED040F60041C4F28F
:1014B0000001884228D02EE044F20003C4F2010368
:1014C000984221D040F20043C4F20103984222D155
:1014D000436C884243F400434364C2DD904207DC1E
:1014E00041F60001C4F2000188420DD0002107E05E
:1014F00044F20001C4F20101884205D040F20041EB
:10150000C4F20101884206D1816801F00701062971
:1015100004BF002010BD016841F0010101600020FE
:1015200010BD0000002804BF0120704710B504461C
:1015300090F8410028B9002084F84000204600F0CF
:1015400021F8242084F841002068C16821F400516A
:10155000C160204600F070FC2068016921F49041D0
:101560000161416921F02A014161C16841F40051E2
:10157000C16000202021606484F8411084F842108A
:10158000606310BD80B586B041F200010068C4F20E
:101590000101002288420592CDE9032202920192C4
:1015A00001D006B080BD43F630000092C4F20200C4
:1015B000436943F010034361436903F01003009350
:1015C000009B0092036843F001030360006800F091
:1015D0000100009000984FF4C06001900220CDE916
:1015E0000202032004900720059001F5704001A934
:1015F000FEF73AFF06B080BD10B590F84230202BC0
:101600001CBF022010BD00294FF0010418BF002AA2
:1016100001D1204610BD0024046300F07BFC20466D
:1016200010BD000010B540F60004C4F2020400F042
:101630000BFA20464FF400510122FEF7E9FF00BFEC
:10164000FEF7F6FE0028FBD000F0FEFCFEF7F0FEF1
:101650000028FBD100F0AEFC132805D820464FF43B
:1016600000510022FEF7D4FF4FF47A70FEF7E8FE37
:1016700010BD0000FEE700002DE9F04F87B0002606
:1016800043F630000696CDE90466CDE90266019680
:10169000C4F202000168002441F004010160016805
:1016A000C4F2020401F0040101910199019601685C
:1016B00004F5006541F0800101600168002201F03D
:1016C000800101910199019601684FF4005741F0A2
:1016D00001010160016801F0010101910199019688
:1016E000016841F010010160016801F010010191F1
:1016F00001990196016841F002010160016801F061
:101700000201019101990196016841F0080101600F
:1017100000684FF4005100F008000190019828463D
:10172000FEF776FF2046042100224FF0040BFEF75F
:101730006FFF2046602101224FF0010AFEF768FF8B
:1017400004F540694846E0210022FEF761FF04F5F8
:1017500080684046F8210022FEF75AFFCDE9027A60
:1017600002AF28463946CDE90466FEF77DFE022524
:1017700020463946CDE902560496FEF775FE20460E
:101780003946CDE902BACDE90456FEF76DFE1020C8
:1017900002A981E8410420463946FEF765FE602033
:1017A000CDE9020A20463946CDE90465FEF75CFE24
:1017B000E020CDE9020A48463946CDE90466FEF745
:1017C00053FEF820CDE9020A40463946CDE90466C9
:1017D000FEF74AFE07B0BDE8F08F000080B540F28A
:1017E000740045F20041C2F20000C4F2000148F268
:1017F000A06200234FF4804CC0F2010280E80E008A
:10180000C0E9033CC0E90533C0E90733FEF70CFF2C
:10181000002818BFFEF708FE80BD000080B540F22A
:10182000C80043F60001C2F20000C4F200014FF408
:101830008272002380E80E0000F114014FF4007C56
:101840004FF0100E81E808500A21C0E90333C0E9C7
:101850000833C0E90A31FFF723FB002818BFFEF761
:10186000E3FD80BD10B592B040F2201000210024AD
:10187000C2F20000C4F201014FF6FF721194CDE9EB
:101880000F44CDE90D44CDE90B44CDE90944CDE940
:101890000744CDE90544CDE90344CDE90144C0E95D
:1018A0000014C0E90242C0E904448461FFF760FD0E
:1018B000002818BFFEF7B8FD40F22010C2F2000069
:1018C00010A9CDE91044FFF7C5FB002818BFFEF7AB
:1018D000ABFD602009900020CDE90A00CDE90C00A5
:1018E000CDE90E0040F22010C2F2000009A900224A
:1018F000FFF7F2FC002818BFFEF796FD40F220101B
:10190000C2F2000009A90422FFF7E6FC002818BF74
:10191000FEF78AFD40F22010C2F2000009A9082259
:10192000FFF7DAFC002818BFFEF77EFD40F220101A
:10193000C2F2000009A90C22FFF7CEFC002818BF54
:10194000FEF772FD00200590CDE90300CDE901000E
:101950004FF40051089040F220100691C2F20000AE
:1019600001A9FFF751FB002818BFFEF75DFD40F20B
:101970002010C2F20000FFF781FC12B010BD000081
:1019800010B582B040F2681041F200010024C2F2AA
:101990000000C4F200014FF6FF73CDE90044472276
:1019A00080E81600C3608461FFF7B0FB002818BF11
:1019B000FEF73AFD40F26810C2F200006946CDE938
:1019C0000044FFF747FB002818BFFEF72DFD02B0CB
:1019D00010BD000080B540F2B01041F20001C2F22B
:1019E0000000C4F2010100234FF00C0C4FF4E1326F
:1019F00080E80E00C0E90333C0E905C3C361FFF707
:101A000091FD002818BFFEF70FFD80BDFEE7000026
:101A1000FEE7000000F0070080F00703042B28BF5A
:101A200004234FF0FF3C03380CFA03F338BF0020C7
:101A3000994381400CFA00F022EA00000843704705
:101A4000704700007047000010B50024C4F2020483
:101A5000204604210122FEF7DBFD0F2000F0A0FA52
:101A6000204604210022FEF7D3FD10BDB0B5013899
:101A70000024B4EB106F1CBF0120B0BD4EF2100566
:101A8000CEF2000568604FF0FF300F2100F066FADB
:101A90000720AC6028602046B0BD000080B5FEF78E
:101AA000C9FE80BD70B592B006AC20463021FEF76D
:101AB00053FC002543F640000595CDE90355CDE9DB
:101AC00001550095C4F202000168022641F08051E0
:101AD0000160006800F080500090009847F200001C
:101AE0000095C4F20000016841F480410160006883
:101AF000482100F4804000900098012006904FF4A7
:101B0000803007904FF480000D9004200E901190CB
:101B100020460C96CDE90F16FFF71EF878B90F2076
:101B2000CDE901064FF48050CDE9040501A802215A
:101B30000395FEF701FF002804BF12B070BDFEF749
:101B400073FC00004EF68850CEF20000016841F4AC
:101B5000700101607047000010B540F6FF3E036859
:101B6000C4F2000E40F2004C7045C4F2010C0FDCD0
:101B7000B0F1804F19D040F20042C4F2000290420E
:101B800013D040F60002C4F2000290420DD010E0E3
:101B900040F60042C4F20002904206D0604504D0F4
:101BA0000022C4F20102904203D14A6823F070037C
:101BB000134341F6FF72C4F2000290420DDC7045FF
:101BC0001FDCB0F1804F41D040F20042C4F200026D
:101BD00090423BD040F6000221E043F6FF72C4F28F
:101BE0000102904220DC42F20002C4F20002904264
:101BF0002CD00022C4F20102904227D0604525D0AB
:101C000028E040F60042C4F2000290421ED041F6A5
:101C10000002C4F20002904218D041F60042C4F221
:101C20000002904212D015E044F20002C4F2010218
:101C300090420BD044F60002C4F20102904205D05B
:101C400044F20042C4F20102904203D1CA6823F474
:101C50004073134323F080024B69D1F800E08C6895
:101C60001A430260C46240F48062C0F828E0624512
:101C700004BF09690163012141610169C90708BF06
:101C800010BD016921F00101016110BD80B501F0B5
:101C90001F014FF0010CD0F820E00CFA01F32EEAFE
:101CA00003030362036A02FA01F11943016280BD72
:101CB000B0B5026A036A40F2004523F001030362F3
:101CC000D0F804E0D0F818C08C6822F0020240F48A
:101CD0008063C4F20105AB4242EA040205D1CC683C
:101CE00022F00C0224F0040422430C68AB4207D11A
:101CF000D1E905532EF4407E45EA0E0545EA030E70
:101D00002CF073032343C0F804E083614968416306
:101D10000262B0BD70B5026A036A40F2004423F06B
:101D200010030362D0F804E0D0F818C08D6822F0E8
:101D3000200240F48063C4F20104A34242EA051287
:101D400007D1CD686FF0400622F0C00206EA051503
:101D50002A430D68A34207D1D1E905642EF44063FC
:101D600043EA860343EA840E2CF4E64343EA052360
:101D7000C0F804E0836149688163026270BD0000BD
:101D800070B5026A036A40F2004423F48073036270
:101D9000D0F804E0D0F81CC08D6822F4007240F442
:101DA0008063C4F20104A34242EA052207D1CD6850
:101DB00040F2FF462D0222F44062B5432A430D68EB
:101DC000A34207D1D1E905642EF4405343EA061338
:101DD00043EA041E2CF073032B43C0F804E0C361F4
:101DE0004968C163026270BD70B5D0F820C0026A54
:101DF00040F2004622F4805202624268C3690C68D5
:101E0000D1F808E040F48065C4F20106B54204D17F
:101E10004D6922F4804242EA851223F4E64343EA04
:101E200004234260C3612CF40056496846EA0E322E
:101E30000164026270BD000010B504460068D4E978
:101E400002C22369016921F44051114301616269B1
:101E500043EA0C01E3691143C268194349F20C6378
:101E60009A431143C1604169A26921F4407141F272
:101E70000043114340F48062C4F201039A4241617D
:101E800002D1FEF721FE01E0FEF70CFEE169636876
:101E90001922B1F5004FA0FB02011CD15A00DB0F43
:101EA000FEF7E2F948F21F51C5F2EB11A0FB012346
:101EB0005A096FF0630302FB0300322303EBC000F7
:101EC000A0FB01014FF4F87000EA111000EB0210C2
:101ED000C1F342111AE09A009B0FFEF7C5F948F2D0
:101EE0001F51C5F2EB11A0FB01235A096FF06303E8
:101EF00002FB0300322303EB0010A0FB0101F020E2
:101F000000EA511000EB0210C1F3431122680843AC
:101F1000906010BD816200218285C28541642221CA
:101F200080F84210016921B10168CA6842F48072E8
:101F3000CA600168486940F001004861C86840F023
:101F400020020020CA607047FEE700004EF60C50E9
:101F5000CEF200000068C0F3022070474EF6145322
:101F600000F00F02CEF2000309011A4400F16043B1
:101F7000B0F1FF3FC8BF03F5644211707047000025
:101F80004EF60C51CEF200010A684FF6FF031A40DC
:101F900060F30A2242F0806040F0FD7008607047F4
:101FA000002808BF704700210131814200BFFBD3E8
:101FB0007047000010B540F26814C2F200042046D9
:101FC000FFF742F920684FF4AD71406A484341F28F
:101FD0005971CDF2B711A0FB0101880B10BD0000B3
:101FE000FEF736FCFFF75EFDFFF746FBFFF73AFC16
:101FF000FFF7F4FBFFF712FCFFF7ECFCFFF7C0FC68
:1020000040F2B01040F27001C2F20000C2F20001D2
:102010000122FFF7F1FA40F22014C2F20004204638
:102020000021FFF7EDF920460421FFF7E9F92046EA
:102030000821FFF7E5F920460C21FFF7E1F900BF81
:10204000FFF7F0FAFCE7000080B540F26810C2F23A
:102050000000016800224A62FFF7A2F880BDF1EE9D
:10206000100A4FF6FF71C0F2C03120EA010040F0C3
:102070004070E1EE100A7047000000000000000010
:10208000010203040607080900000000010203041E
:10209000B02000080000002010000000C40100086B
:1020A000C020000810000020F0070000E001000838
:1020B0000024F400010000001000000000000000F7
:040000050800018965
:00000001FF
